:04000000D9EF06F03E
:08000800046ED8CF05F0E0CF33
:1000100006F00001E9CF0CF0EACF07F0E1CF08F0DD
:10002000E2CF09F0D9CF0AF0DACF0BF0F3CF12F01C
:10003000F4CF13F0FACF14F000C00EF001C00FF0AF
:1000400002C010F003C011F09DAA2AEF00F09EBA82
:100050004BEF00F00EC000F00FC001F010C002F036
:1000600011C003F00CC0E9FF07C0EAFF078E08C00B
:10007000E1FF09C0E2FF0AC0D9FF0BC0DAFF12C0DE
:10008000F3FF13C0F4FF14C0FAFF045006C0E0FFF2
:1000900005C0D8FF10009EAAFED7AECF2DF033507A
:1000A000332A036A2E0FE96E000E0320EA6E2DC07C
:1000B000EFFF3350040802E1336A326A2D506908B9
:1000C000D8B4336A9E9A2AEF00F07B2272706D22B8
:1000D0003A254C642C227673223A254C642C2262F9
:1000E0006174223A20254C642C226675656C223A94
:1000F00020254C642C2276616C6F72223A20254CAC
:10010000647D0D0A00007B2276616C6F72223A20BA
:10011000254C647D0D0A00007B2241223A2225787D
:10012000222C202242223A222578222C20224322ED
:100130003A222578222C202244223A222578227D38
:100140000D0A00007B2276616C6F72223A20254CEA
:10015000647D0D0A00005338700B006ED890003695
:100160001F0E6F1400106F6E6ECF00F0003A00305B
:10017000070B535CF9E1000C706AF00E716E860E8D
:10018000726E5FEF01F063C06AF062C069F068539D
:1001900052E069C0E9FF6AC0EAFF64C0EFFF69513D
:1001A000D8B46A07690769C0E9FF6AC0EAFF65C099
:1001B000EFFF6951D8B46A07690769C0E9FF6AC0EF
:1001C000EAFF6651030BEF6E69C0E9FF6AC0EAFF00
:1001D00066C000F0003600360036F80E00160050FB
:1001E000E00BEF10EF6E69C0E9FF6AC0EAFFEF5065
:1001F0000809EF6E6951D8B46A07690769C0E9FF59
:100200006AC0EAFF66C000F0003A0032070E00162E
:100210000050070BEF6E69C0E9FF6AC0EAFF67C0D4
:1002200000F0003600360036F80E00160050F80BCD
:10023000EF10EF6E3FD069C0E9FF6AC0EAFFEF6AD6
:100240006951D8B46A07690769C0E9FF6AC0EAFF63
:10025000EF6A6951D8B46A07690769C0E9FF6AC0E3
:10026000EAFF64C000F0003A0036E00E00160050CD
:10027000E00BEF6E6951D8B46A07690769C0E9FFFE
:100280006AC0EAFF64C000F00032003200321F0E84
:10029000001600501F0BEF6E69C0E9FF6AC0EAFF4D
:1002A00065C000F0003A0036E00E00160050E00B8A
:1002B000EF10EF6E000C040E536E4DDF5DD7606AD9
:1002C0009F0E6014606E608460CF50FF739A7398C5
:1002D0000F0E636F1B0E626F676B666B656B646BF3
:1002E00052C068F050DF0F0E636F030E626F676BD2
:1002F000666B656B646B52C068F045DF0F0E636F11
:10030000070E626F676B666B656B646B52C068F05B
:100310003ADF0F0E636F1F0E626F676B666B656B64
:10032000646B010E686F2FDF0F0E636F0B0E626F31
:10033000676B666B656B646B52C068F024DF0F0EF1
:10034000636F626F676B666B656B646B52C068F05E
:100350001ADF0F0E636F130E626F676B666B656B50
:10036000646B52C068F00FDF0F0E636F170E626F81
:10037000676B666B656B646B52C068F004DF93500B
:10038000FB0B0809936E536AE6DE33EF07F0546AFD
:1003900054500208D8A06FD0036A54505224E96E1A
:1003A00053500320EA6EEFCF29F0542A29502F082A
:1003B0001AE22950390817E32A362B362A362B360B
:1003C0002A362B362A362B36F00E2A1629502A24A6
:1003D000556E000E2B20566E300E555C2A6E000EA8
:1003E00056582B6E47D0295040081EE22950460827
:1003F0001BE32A362B362A362B362A362B362A365C
:100400002B36F00E2A160A0E2A24556E000E2B20CB
:10041000566E29505526000E5622410E555C2A6E06
:10042000000E56582B6E26D0295060081EE2295027
:1004300066081BE32A362B362A362B362A362B360D
:100440002A362B36F00E2A160A0E2A24556E000E76
:100450002B20566E29505526000E5622610E555CF3
:100460002A6E000E56582B6E05D02950740802E1F2
:100470002AC02CF08DD7B4EF07F00F0E606F660E18
:100480005F6E0F0140B708D0F10E6F1408096F6E50
:100490000001616B1BD00F0130B709D0F10E6F1452
:1004A00006096F6E010E0001616F10D00F0120B7B9
:1004B00009D0F10E6F1404096F6E020E0001616F16
:1004C00005D00F01000E016E3BD000015B50030B05
:1004D000006EFC0E60140010606E0F0E636F640EF1
:1004E000626F57C067F056C066F055C065F054C0E3
:1004F00064F05CC068F047DE5AC065FF659C5DB083
:10050000658C5E6A5A505E5C14E258C0E9FF59C0BF
:10051000EAFFEFCF64F060C0EAFF5FC0E9FF64C0AC
:10052000EFFF5F2AD8B4602B582AD8B4592A5E2A24
:10053000E9D76086F10E6F146F6E010E016E0F0128
:100540000001DBEF07F0646B636B626B616B5FC094
:1005500066F05EC065F06053D8B488D066C003F022
:1005600065C0E9FF66C0EAFFEFCF00F0016A026AEA
:10057000036A03C064F002C063F001C062F000C00F
:1005800061F06551D8B46607650765C0E9FF66C0CC
:10059000EAFFEF50696B686B676F006A0050611388
:1005A0006751621368516313695164136551D8B47C
:1005B0006607650765C0E9FF66C0EAFFEF506A6B32
:1005C000696B686B676F030E6717686B696B6A6BA3
:1005D000006A016A0050611301506213675163138E
:1005E0006851641365C0E9FF66C0EAFFEF506A6BAB
:1005F000696B686B676FE00E6717686B696B6A6B96
:10060000006A016A6735026E6835036E023603368A
:10061000FC0E021600506113015062130250631366
:10062000035064136551D8B46607650765C0E9FFD8
:1006300066C0EAFFEF50686B676F006A016A673552
:10064000026E6835036E0236033602360336023612
:10065000033602360336E00E0216005061130150D5
:100660006213025063130350641353D0020E655F8C
:10067000000E665B65C0E9FF66C0EAFFEF506A6B7B
:10068000696B686B676FE00E6717686B696B6A6B05
:100690006A31646F6931636F6831626F6731616FAE
:1006A000643363336233613364336333623361339E
:1006B000643363336233613364336333623361338E
:1006C000070E64176551D8B46607650765C0E9FF72
:1006D00066C0EAFFEF506A6B696B686B676F6735DE
:1006E000006E6835016E6935026E6A35036E00363C
:1006F0000136023603360036013602360336F80E6E
:10070000001600506113015062130250631303502E
:10071000641361C000F062C001F063C002F064C005
:1007200003F032EF08F08E0E006E57C001F056C095
:1007300002F0036A015209E102C001F0026A080EE8
:10074000005E015202E1006A08D0D89001BE04D0D8
:10075000023601360006F9D7019E000C5250D8B47B
:1007600071D0006E5650D8B46DD0002604E3810ECF
:10077000002668E204D07F0E005E64E363E053C0AD
:100780005AF057505A1A538E578E55505902F4CF7B
:100790005CF054505802F4CF03F0F3CF5BF05902F1
:1007A000F3505C26F4505B22000E03225550580291
:1007B000F3505C26F4505B22000E026A03220222F0
:1007C00053505902F3505B26F4500322000E0222CC
:1007D00053505802F3500326F4500222000E016ACF
:1007E000012255505702F3505B26F4500322000EAD
:1007F0000222012254505702F3500326F4500222E1
:10080000000E012253505702F3500226F4500122E9
:10081000002A01BE05D05B360336023601360006DB
:10082000000E5BAE0AD0032A02220122015005E12C
:10083000025003E1035001E1002A5ABE018E5AAE74
:10084000019E04D0006A016A026A036A000C800EED
:10085000D8B25B1A606B616B57C05FF05B505F1A78
:100860005650D8B4DCD05E6E006E5A50D8B4E0D08A
:100870005E5ED8B481D03DE35BC064F0648F5CC041
:1008800063F05DC062F0616BD890643363336233B0
:1008900061335E2EF8D75FAE03D06081DDD060910A
:1008A0005E906089EA6A590EE96EE9D060995FBE90
:1008B0000AD05EA013D06433633362336133002AFD
:1008C000D8B4C5D00BD064BF0CD0D8906137623794
:1008D000633764370006D8B4BAD0F5D7608D6BD0D3
:1008E000609D57C05FF057AE02D0648FA9D0649F5F
:1008F000A7D05AC05EF05AC000F056505E5E57C096
:1009000064F0648F58C063F059C062F0616BD89096
:1009100064336333623361335E2EF8D75FAE03D046
:1009200060839AD060935E90608BEA6A5D0EE96E98
:10093000A6D0609B5FBE0AD05EA013D06433633341
:1009400062336133002AD8B482D00BD064BF0CD09C
:10095000D89061376237633764370006D8B477D0F0
:10096000F5D7608F28D0609F5BC05FF05BAE02D090
:10097000648F66D0649F64D05BC064F0648F5CC099
:1009800063F05DC062F05FAE04D0649F608564D0A8
:100990006095616B5E90EA6A590EE96E70D05FBE39
:1009A0001CD057C05FF05EA006D06433633362335F
:1009B0006133002A4CE061AF0BD0622B09E1632B5D
:1009C00007E1642B05E1643363336233002A3FE0BF
:1009D00060BD86D760BFC7D71CD0800E641B64AFD4
:1009E00004D03AD05BC05FF00AD057C05FF06453C8
:1009F00006E1635304E1625302E1006A21D064BF5F
:100A000008D0D8906137623763376437002EF7D744
:100A10001ED05FAE02D0648F13D0649F11D05AC035
:100A200000F05BC064F05CC063F05DC062F008D0B1
:100A300056C000F057C064F058C063F059C062F06F
:100A400064C001F063C002F062C003F034D0006AF9
:100A5000016A026A036A2FD0616B621F631F641F01
:100A6000611F612B05E1622B03E1632B01E1642B24
:100A700060B115D760B356D760B58AD7B3D7EF50FA
:100A8000622705E3632B03E1642BD8B45E80ED524B
:100A9000EF50632703E3642BD8B45E80ED52EF5030
:100AA000EFBE01D0800A6427D8B05E8060B9FED660
:100AB00060BB3FD774D7000C8E0E006E5250005EA4
:100AC00053C002F054C001F0028E005209E0D890E9
:100AD000025202E1015204E002320132002EF7D745
:100AE00053AE05D0011E021E012AD8B4022A000C02
:100AF0005650D8B4A5D0626F5A50D8B4A1D0625F16
:100B000005E37F0E6227D8B09BD006D0810E625FCE
:100B1000D8A096D0D8B494D062C000F0016A026A1E
:100B2000036A616B57C060F0608F58C05FF059C0B6
:100B30005EF0190E626F5D505E5E0DE2010E5F5E4B
:100B40000AE2605F08E2615F06E2612B602B5F2AC8
:100B50005D505E2628D05C505F5E12E2010E605F41
:100B60000FE2615F0DE2612B602B5C505F265D50F0
:100B70005E2619E35F2A17E1602B15E1612B13D084
:100B80005B508009605F0EE2010E615F0BE2612B3A
:100B90005B50800960275C505F26E9E3602BE7E14A
:100BA000612BE5D70380622F01D00BD0D8905E3641
:100BB0005F3660376137D8900336023601366337C7
:100BC000BAD763A106D0D890013202320332633320
:100BD00002D0000635E063BF1ED0D8905E365F3687
:100BE000603761375D505E5E07E2010E5F5E04E2D2
:100BF000605F02E2615F1AE35C505F5E05E2010E36
:100C0000605F02E2615F12E35B508009605F03E2B4
:100C1000010E615F0BE3032A09E1022A07E1012AC1
:100C200005E1002A0DE001320232033257C062F0C2
:100C30005B50621B62AF02D0018E06D0019E04D0D1
:100C4000006A016A026A036A000C0900F6CF53F0D9
:100C5000F7CF54F0F5509EA8FED7AD6E53C0F6FF07
:100C600054C0F7FF522EF1D7000CEACF5AF0E9CF6B
:100C700059F053AE08D0598E59A8592A521E531E06
:100C8000522AD8B4532A5338F009556E5526E20F2C
:100C9000566E320F586E53500F0B56265626582656
:100CA000E90F576E5726572652380F0B57265826EE
:100CB00057365836581E583652500F0B5826553650
:100CC000070E546E0A0E57065826FDE356065726A1
:100CD000FDE355065626FDE354065526FDE3EA6A74
:100CE000540EE96E070E5914599CE906591407E190
:100CF00059B8E92A59B803D0200E006E1CD0E92655
:100D0000580EE95CD8B4598CEF50006E08E159BC1C
:100D100006D059B814D059B602D0200E0BD059AE17
:100D200006D02D0E006EED50599C599E04D0598668
:100D30005998300E002600509EA8FED7AD6EEE509A
:100D400059ACDED7000C53BE10D00F0E006E5238D7
:100D500000160A0E005C03E2300E002602D053504B
:100D6000002600509EA8FED7AD6E0F0E52160A0E3A
:100D7000525C02E2300E02D0539E53505226525023
:100D80009EA8FED7AD6E000CEA6A530EE96EEF50D6
:100D90000EE0050E016E006A002EFED7012EFBD775
:100DA0002E0E006E002EFED700D0EF2EF2D71CEFD5
:100DB0000BF0F86AD09E078EEA6AE96AB886A00E40
:100DC000AF6E010EB06EA60EAC6E900EAB6E1A6AD0
:100DD000196A186A176AFF0E1B6E0D0E1C6E1E6ACA
:100DE0001D6A206A1F6A226A216A246A236A266AA7
:100DF000256A286A276A2B6A2A6A2C6E2D6A336A4A
:100E0000C150C00B0F09C16E070EB46E300E2E6EAE
:100E1000630E2F6E740E306E780E316E326A3F6A3A
:100E20003E6A3D6A1CC03CF040904092080E416E04
:100E3000030E426E516A5150070812E3036A515083
:100E4000340FE96E000E0320EA6EEF6A036A515018
:100E5000480FE96E000E0320EA6EEF6A512AEBD7C5
:100E6000526A5BEF01F09D8AC00EF212040E536EBF
:100E7000ABEC00F00F0E636F1B0E626F676B666B5F
:100E8000070E656FFC0E646F686BC3EC00F00F0E0D
:100E9000636F030E626F676B666B070E656FE80E1C
:100EA000646F686BC3EC00F00F0E636F070E626F28
:100EB000676B666B656FE80E646F686BC3EC00F080
:100EC0000F0E636F1F0E626F676B666B070E656FA9
:100ED000FC0E646F686BC3EC00F00F0E636F0B0EBB
:100EE000626F676B666B070E656FE80E646F686B09
:100EF000C3EC00F00F0E636F626F676B666B070EDB
:100F0000656FE80E646F686BC3EC00F00F0E636FE3
:100F1000130E626F676B666B070E656FE80E646F8A
:100F2000686BC3EC00F00F0E636F170E626F676B98
:100F3000666B070E656FE80E646F686BC3EC00F0BC
:100F4000536AABEC00F0020E346E010E356E1CC01D
:100F500036F03F6A3E6A070E3D6EDF0E3C6E536A06
:100F60002E0E526EC7EF01F02CC036F00F0140A7D5
:100F700004D030A702D020B725D0000E40B2010E19
:100F8000526E000E40B0010E536E3FC057F03EC08F
:100F900056F03DC055F03CC054F0596A340E586EBE
:100FA00041C05AF042C05BF052C05CF053C05DF0EB
:100FB00000013DEF02F001C051F0513C01D001D0E1
:100FC00000D00F0160BE02D050AF2FD3536A480E3D
:100FD000526E60AE17D0F10E6F146F6E4398A490EE
:100FE000439074BE4380749E60A40BD0000E60B02A
:100FF000010E070B006ED8900036F10E431400105E
:10100000436E1AD050AF15D0F10E6F140A096F6EEF
:101010004388A492439074BC4380749C5051070B46
:10102000070B006ED8900036F10E43140010436E8B
:1010300003D0000E016E4BD065500F0B506E439ADB
:1010400065BC438A439C62B6438C000E43BC010ED0
:10105000576E0F0E5F6E640E5E6E57C060F000013B
:10106000A3EF02F003C047F002C046F001C045F014
:1010700000C044F00F0E566E660E556E546A505006
:10108000545C14E255C0E9FF56C0EAFFEFCF59F0B7
:1010900053C0EAFF52C0E9FF59C0EFFF522AD8B44B
:1010A000532A552AD8B4562A542AE9D7F10E6F1478
:1010B0006F6E439EA4BE438EA49E43A804D00F012E
:1010C000509F03D00001609E0F01010E016E01527E
:1010D00006E0516A5050515C02E2512AFBD74A5057
:1010E000210A000111E00E0A51E0730A72E0510A70
:1010F000D8B493D0010AD8B498D0520AD8B4F2D058
:101100001C0AD8B44ED1ACD1576A4BC056F093EC00
:1011100003F003C055F002C054F001C053F000C00A
:1011200052F0596A586A576A870E566EAEEC03F051
:1011300000C052F001C053F002C054F003C055F09B
:10114000576A4CC056F093EC03F0D89255C059F052
:1011500054C058F053C057F052C056F003C05DF071
:1011600002C05CF001C05BF000C05AF027EC04F054
:1011700003C055F002C054F001C053F000C052F05B
:101180009BDC02C026F001C025F06BD1576A4BC032
:1011900056F093EC03F003C059F002C058F001C0C0
:1011A00057F000C056F0330E5D6E5C6E230E5B6E22
:1011B000800E5A6E9DDC03C055F002C054F001C091
:1011C00053F000C052F078DC02C026F001C025F0D8
:1011D00048D1576A4BC056F093EC03F0D88203C055
:1011E00059F002C058F001C057F000C056F05D6AD7
:1011F0005C6A200E5B6E840E5A6E27EC04F003C00E
:1012000055F002C054F001C053F000C052F054DC5D
:1012100002C028F001C027F024D1206A4BC01FF083
:1012200020C026F01FC025F01CD1576A4BC056F0D5
:1012300093EC03F003C055F002C054F001C053F02A
:1012400000C052F0596A586A576A870E566EAEEC63
:1012500003F000C052F001C053F002C054F003C0CC
:1012600055F0576A4CC056F093EC03F0D89255C035
:1012700059F054C058F053C057F052C056F003C054
:101280005DF002C05CF001C05BF000C05AF027ECDA
:1012900004F000C052F001C053F002C054F003C08B
:1012A00055F003C059F002C058F001C057F000C01B
:1012B00056F05D6A5C6A5B6A810E5A6E19DC03C087
:1012C00055F002C054F001C053F000C052F05CEC85
:1012D00005F002C01EF001C01DF01EC026F01DC0AA
:1012E00025F0BFD0576A4BC056F093EC03F003C013
:1012F00055F002C054F001C053F000C052F0596ADA
:10130000586A576A870E566EAEEC03F000C052F072
:1013100001C053F002C054F003C055F0576A4CC0EE
:1013200056F093EC03F0D89255C059F054C058F0E1
:1013300053C057F052C056F003C05DF002C05CF0DD
:1013400001C05BF000C05AF027EC04F000C052F07E
:1013500001C053F002C054F003C055F003C059F06F
:1013600002C058F001C057F000C056F05D6A5C6AD8
:10137000200E5B6E830E5A6E78EC05F003C055F0BC
:1013800002C054F001C053F000C052F05CEC05F014
:1013900002C024F001C023F024C026F023C025F0B1
:1013A00060D0576A4BC056F093EC03F003C055F081
:1013B00002C054F001C053F000C052F0596A586A9C
:1013C000576A870E566EAEEC03F000C052F001C0B3
:1013D00053F002C054F003C055F0576A4CC056F0A9
:1013E00093EC03F0D89255C059F054C058F053C054
:1013F00057F052C056F003C05DF002C05CF001C06F
:101400005BF000C05AF027EC04F000C052F001C0BD
:1014100053F002C054F003C055F003C059F002C0AD
:1014200058F001C057F000C056F05D6A5C6A7A0E51
:101430005B6E880E5A6E78EC05F003C055F002C062
:1014400054F001C053F000C052F05CEC05F002C053
:1014500022F001C021F022C026F021C025F001D0E9
:1014600000D0315078085DE1CA0EF66E000EF76EBE
:10147000070E526E25EC06F0100EE96E1EC053F0FA
:101480001DC052F035EC06F0D40EF66E000EF76E6D
:10149000060E526E25EC06F0100EE96E20C053F0D9
:1014A0001FC052F035EC06F0DD0EF66E000EF76E42
:1014B000080E526E25EC06F0100EE96E22C053F0B5
:1014C00021C052F035EC06F0E80EF66E000EF76E15
:1014D000090E526E25EC06F0100EE96E24C053F092
:1014E00023C052F035EC06F0F40EF66E000EF76EE7
:1014F0000A0E526E25EC06F0100EE96E26C053F06F
:1015000025C052F035EC06F07D0E9EA8FED7AD6EDC
:101510000D0E9EA8FED7AD6E0A0E9EA8FED7AD6E2C
:1015200083D0315079081DE1060EF66E010EF76E7C
:101530000A0E526E25EC06F0100EE96E26C053F02E
:1015400025C052F035EC06F07D0E9EA8FED7AD6E9C
:101550000D0E9EA8FED7AD6E0A0E9EA8FED7AD6EEC
:1015600063D031507A0841E1180EF66E010EF76E25
:10157000060E526E25EC06F04BC052F0570E536E1D
:10158000A3EC06F0200EF66E010EF76E080E526EFA
:1015900025EC06F04CC052F0570E536EA3EC06F04B
:1015A0002A0EF66E010EF76E080E526E25EC06F04E
:1015B0004DC052F0570E536EA3EC06F0340EF66E8B
:1015C000010EF76E080E526E25EC06F04EC052F07A
:1015D000570E536EA3EC06F03E0EF66E010EF76E3C
:1015E000040E526E25EC06F01FD0315077081CE136
:1015F000440EF66E010EF76E0A0E526E25EC06F0E2
:10160000100EE96E28C053F027C052F035EC06F0FA
:101610007D0E9EA8FED7AD6E0D0E9EA8FED7AD6EB8
:101620000A0E9EA8FED7AD6E0F01080E526EFA0E7E
:10163000536E0001C4EF06F0522E01D002D00F010C
:06164000F6D78DD4030073
:020000040030CA
:0E00000000C21E1E008691000FC00FE00F40D0
:00000001FF
;PIC18F4580
;CRC=41A0  CREATED="23-jun.-21 14:36"
